{
  "_format": "hh-sol-artifact-1",
  "contractName": "GigaCreditIssuer",
  "sourceName": "contracts/GigaCreditIssuer.sol",
  "abi": [
    {
      "inputs": [
        {
          "internalType": "address",
          "name": "gigaCredit_",
          "type": "address"
        }
      ],
      "stateMutability": "nonpayable",
      "type": "constructor"
    },
    {
      "inputs": [
        {
          "internalType": "bytes32",
          "name": "",
          "type": "bytes32"
        }
      ],
      "name": "balance",
      "outputs": [
        {
          "internalType": "uint256",
          "name": "",
          "type": "uint256"
        }
      ],
      "stateMutability": "view",
      "type": "function"
    },
    {
      "inputs": [],
      "name": "gigaCredit",
      "outputs": [
        {
          "internalType": "contract IERC20",
          "name": "",
          "type": "address"
        }
      ],
      "stateMutability": "view",
      "type": "function"
    },
    {
      "inputs": [
        {
          "internalType": "bytes32",
          "name": "schoolId",
          "type": "bytes32"
        },
        {
          "internalType": "uint256",
          "name": "amount",
          "type": "uint256"
        }
      ],
      "name": "issueCredits",
      "outputs": [],
      "stateMutability": "nonpayable",
      "type": "function"
    }
  ],
  "bytecode": "0x60a060405234801561001057600080fd5b506040516105cf3803806105cf833981810160405281019061003291906100cf565b8073ffffffffffffffffffffffffffffffffffffffff1660808173ffffffffffffffffffffffffffffffffffffffff1681525050506100fc565b600080fd5b600073ffffffffffffffffffffffffffffffffffffffff82169050919050565b600061009c82610071565b9050919050565b6100ac81610091565b81146100b757600080fd5b50565b6000815190506100c9816100a3565b92915050565b6000602082840312156100e5576100e461006c565b5b60006100f3848285016100ba565b91505092915050565b6080516104b261011d6000396000818160b2015261011701526104b26000f3fe608060405234801561001057600080fd5b50600436106100415760003560e01c80637e16b56b1461004657806389eba42114610064578063dc3bc27314610094575b600080fd5b61004e6100b0565b60405161005b9190610239565b60405180910390f35b61007e6004803603810190610079919061028f565b6100d4565b60405161008b91906102d5565b60405180910390f35b6100ae60048036038101906100a9919061031c565b6100ec565b005b7f000000000000000000000000000000000000000000000000000000000000000081565b60006020528060005260406000206000915090505481565b80600080848152602001908152602001600020600082825461010e919061038b565b925050819055507f000000000000000000000000000000000000000000000000000000000000000073ffffffffffffffffffffffffffffffffffffffff166323b872dd3330846040518463ffffffff1660e01b8152600401610172939291906103e0565b6020604051808303816000875af1158015610191573d6000803e3d6000fd5b505050506040513d601f19601f820116820180604052508101906101b5919061044f565b505050565b600073ffffffffffffffffffffffffffffffffffffffff82169050919050565b6000819050919050565b60006101ff6101fa6101f5846101ba565b6101da565b6101ba565b9050919050565b6000610211826101e4565b9050919050565b600061022382610206565b9050919050565b61023381610218565b82525050565b600060208201905061024e600083018461022a565b92915050565b600080fd5b6000819050919050565b61026c81610259565b811461027757600080fd5b50565b60008135905061028981610263565b92915050565b6000602082840312156102a5576102a4610254565b5b60006102b38482850161027a565b91505092915050565b6000819050919050565b6102cf816102bc565b82525050565b60006020820190506102ea60008301846102c6565b92915050565b6102f9816102bc565b811461030457600080fd5b50565b600081359050610316816102f0565b92915050565b6000806040838503121561033357610332610254565b5b60006103418582860161027a565b925050602061035285828601610307565b9150509250929050565b7f4e487b7100000000000000000000000000000000000000000000000000000000600052601160045260246000fd5b6000610396826102bc565b91506103a1836102bc565b92508282019050808211156103b9576103b861035c565b5b92915050565b60006103ca826101ba565b9050919050565b6103da816103bf565b82525050565b60006060820190506103f560008301866103d1565b61040260208301856103d1565b61040f60408301846102c6565b949350505050565b60008115159050919050565b61042c81610417565b811461043757600080fd5b50565b60008151905061044981610423565b92915050565b60006020828403121561046557610464610254565b5b60006104738482850161043a565b9150509291505056fea26469706673582212201ac86f0ee83a80f934206d824a334d796989babee32b572b83984e0b89b300ed64736f6c634300081b0033",
  "linkReferences": {},
  "deployedLinkReferences": {}
}